:020000040000FA
:1000000000250020690200007D0200007F02000040
:100010008102000081020000810200000000000057
:10002000000000000000000000000000810200004D
:100030008102000000000000810200008102000037
:1000400081020000810200008102000081020000A4
:100050008102000081020000810200008102000094
:100060008102000081020000810200008102000084
:100070008102000081020000810200008102000074
:100080008102000081020000810200008102000064
:100090008102000081020000810200008102000054
:1000A0008102000081020000810200008102000044
:1000B0008102000081020000810200008102000034
:1000C0008102000081020000810200008102000024
:1000D0008102000081020000810200008102000014
:1000E000000000000000000081020000810200000A
:1000F00081020000810200008102000081020000F4
:100100008102000081020000810200000000000066
:100110000000000081020000810200008102000056
:1001200081020000810200008102000081020000C3
:100130008102000081020000810200000000000036
:10014000000000000000000000000000810200002C
:100150008102000081020000810200000000000016
:10016000000000000000000000000000000000008F
:10017000000000000000000000000000000000007F
:10018000000000000000000000000000000000006F
:10019000000000000000000000000000000000005F
:1001A00000000000000000000000000081020000CC
:1001B0008102000081020000810200008102000033
:1001C0008102000081020000810200008102000023
:1001D0008102000081020000810200008102000013
:1001E0008102000081020000810200008102000003
:1001F00081020000810200008102000081020000F3
:100200008102000081020000000000008102000065
:1002100081020000810200008102000081020000D2
:1002200081020000810200008102000081020000C2
:1002300081020000810200008102000081020000B2
:1002400081020000810200008102000081020000A2
:100250008102000081020000810200008102000092
:1002600081020000810200004EF68850CEF20000AC
:10027000016841F47001016000F004B8FEE7FEE798
:10028000FEE70000DFF810D000F00CF8004800474F
:10029000190E0000AFF30080002500200138FDD1C9
:1002A00070470000064C074D06E0E06840F001038F
:1002B00094E8070098471034AC42F6D3FFF7E6FF06
:1002C000B4140000D414000010B5C1F30313C0F837
:1002D000C43F531E0C4663F31F14C0F8C84F10BD33
:1002E00001228A40C260704701228A40C26082684F
:1002F00001238B401A438260704730B5034632B108
:10030000DC684FF001158D4004EA05000FE05C68E1
:1003100001258D4045F4803504EA050000F4803461
:100320002CB140F470204FF480348C40A04330BD99
:1003300010B50A0C120401F00F040123A3401A4364
:10034000836A1A43826210BD70B5144689004569FC
:100350000F268E40B54304F00F068E4035434561AD
:10036000056A0F268E40B54303F003068E403543E1
:10037000056204F00F02062A0CD3092A0AD8951F39
:10038000EA00C56930269640B54304F03006964031
:100390003543C56170BD026801238B401A4302607A
:1003A000704770B50C4665014035284492000568D9
:1003B0000F269640B54303F00F069640354305607F
:1003C00085690F269640B543C3F30326964035430F
:1003D000856146680F25954026EA0505C3F3031697
:1003E000964035434560C6690F25954026EA0505C8
:1003F000C3F3035696403543C56103F4702575B1C8
:1004000041690F259540A943C3F30245954029430F
:1004100041610569012696403543056104E005699F
:1004200001269640B543056170BD02F001031BB182
:10043000D0F800340B4302E0D0F800348B43C0F80E
:10044000003402F002031BB1D0F820340B4302E069
:10045000D0F820348B43C0F820347047F0B55F4D9E
:100460002D685F4E35405F4EB5421AD0002416E02D
:100470000125A5400D4085B1D0F8C45F6700032673
:10048000BE40B543C0F8C45FD0F8C45F6700C2F394
:100490004116BE403543C0F8C45F651CECB2082C61
:1004A000E6DB02F001051DB1D0F800550D4302E076
:1004B000D0F800558D43C0F8005502F002051DB17B
:1004C000D0F804550D4302E0D0F804558D43C0F830
:1004D000045502F004051DB1D0F808550D4302E0A3
:1004E000D0F808558D43C0F8085502F008051DB135
:1004F000D0F818550D4302E0D0F818558D43C0F8D8
:100500001855364D2D68364E3540364EB5420BD017
:1005100002F010051DB1D0F83C550D4302E0D0F8B3
:100520003C558D43C0F83C5503F001051DB1D0F892
:100530000C550D4302E0D0F80C558D43C0F80C5516
:1005400003F002051DB1D0F810550D4302E0D0F8BC
:1005500010558D43C0F8105503F004051DB1D0F8B7
:1005600014550D4302E0D0F814558D43C0F81455CE
:1005700003F008051DB1D0F81C550D4302E0D0F87A
:100580001C558D43C0F81C55144D2D68144E354034
:10059000144EB54217D003F400751DB1D0F8445580
:1005A0000D4302E0D0F844558D43C0F8445503F4A0
:1005B00040751DB1D0F840550D4302E0D0F84055CC
:1005C0008D43C0F840551BB9D0F828550D4302E0C3
:1005D000D0F828558D43C0F82855F0BD00E00F40F5
:1005E0000000FF700000051010B50146C1F3074080
:1005F0000F4BDB6E01248440234033B1012303EB16
:1006000040030C4C54F8230003E04300094C54F819
:100610002300C1F30722D0F82C350F249440A343C4
:1006200001F00F0494402343C0F82C3510BD0000A6
:1006300000E00F40A011000030B504460D46002236
:1006400029462046FFF7F1FE0023012229462046D5
:10065000FFF704FF30BD30B504460D46022229469F
:100660002046FFF7E2FE0823012229462046FFF735
:10067000F5FE30BDF0B55048036E026F02F0004049
:1006800010B102F0700001E003F03000202811D01A
:1006900003DC38B1102815D10AE030280CD07028BE
:1006A00010D10CE04548C3F3841750F827100BE035
:1006B000434909E0434907E047F2305104E04FF471
:1006C000004101E00020F0BD00BF4FF0FF3402F018
:1006D000004010B102F4006028B102F0004090BB6D
:1006E00003F4006078BB384805683348D0F864618B
:1006F00006F01F00401CC6F304277F1C10FB07F008
:100700004000B1FBF0F1C5F309004843C5F3892768
:100710004F4300EB972143F480032748006900F41E
:100720007040B0F5804F13D006DCB0F5005F0BD001
:10073000B0F5405F12D109E0B0F5E04F0AD0B0F556
:10074000104F0BD108E00BE0204C08E0204C06E0F5
:10075000204C04E0204C02E0204C00E000BF00BF31
:1007600003F4800018B302F00040D8B102F08040DA
:1007700090B102F0004010B102F4006028B102F024
:10078000004048B903F4006030B94F00C2F386500E
:10079000401CB7FBF0F10AE0C2F3C550401CB1FBAE
:1007A000F0F104E0C3F3C350401CB1FBF0F18C4204
:1007B00000D22146084686E700E00F4030120000D4
:1007C0000024F40000093D0060E10F4000B4C404BF
:1007D00080F0FA02005A620240787D01002D31015A
:1007E0002DE9F04106464448046E056F44F4006468
:1007F00024F4800445F400650466056704F00100F4
:10080000D8B106F00100C0B966F0010004404FF411
:10081000807039498865084604664FF4002702E075
:100820007F1E07B905E03448006D00F48070002891
:10083000F6D000BF0FB9BDE8F08124F4FE6406F4E1
:10084000FE6004432D4805402C49A13106EA010011
:10085000054306F0080045EAC00527480466056719
:1008600024F4005406F40050044325F4005506F423
:100870000050054340202049886505F0004018B12C
:1008800008460567046602E01B48046605671C48C5
:100890000440C14306EA0100044325F0FC5506F07C
:1008A000FC50054306F0804040B144F4800425F438
:1008B0008005144906EA0100054301E025F0804562
:1008C00006F4006080B94FF4004706E00E48006867
:1008D00000F0010000B102E07F1E002FF6D100BF42
:1008E00024F4006425F400650348046605671020BD
:1008F000FFF7D4FC00BF9EE700E00F408FFFFF7FB3
:10090000FEFF3FF80000404068E10F4010B50121B4
:10091000C0F30722094B1A4402F0704242F0007201
:10092000C0F30723054C2344C3F3130342EA4312E5
:10093000C3B242EA8302116010BD000000E60F401E
:1009400010B51048FFF7E2FF0F48FFF7DFFF012067
:10095000FFF74AFE40F20140FFF746FE01214FF04B
:100960004020FFF778FE02214FF04020FFF773FE92
:10097000FFF780FE044622464FF4E131002000F0EC
:100980000FF810BD000800F0001800F0C16A41F037
:100990001001C162016B40F20132114301637047E3
:1009A0002DE9F04104460D461646154A52F824003A
:1009B0004FF08072526C1169884708B9BDE8F08128
:1009C000104850F82400104908600D4A52F82400DD
:1009D0004FF08072526C916988474FF08070406987
:1009E00060232A463146476907480068B8474FF0F8
:1009F00080704069C16904480068884700BFDDE72E
:100A00009414000088140000000000200FB408B502
:100A100003A800900099029800F006F800200090CA
:100A200001B05DF814FB00002DE9F34F85B00646D8
:100A300012E1002400E0641C305D252802D0305D06
:100A40000028F8D12146304600F016F926443078C7
:100A50002528EDD1761C00254FF0200B00BF16F89D
:100A6000011B382932D014DC33292AD008DC25298F
:100A70006FD0302922D0312921D032296AD11FE00C
:100A800034291FD035291ED036291DD03729F5D15C
:100A90001BE0692935D008DC392918D0582972D0D3
:100AA000632922D06429E9D12AE070296CD0732906
:100AB0003CD0752958D07829E0D163E000BF00BF51
:100AC00000BF00BF00BF00BF00BF00BF00BF16F8DF
:100AD000010C302801D105B9834605EB850045009E
:100AE00016F8010C30380544B9E706980068049000
:100AF0000698001D0690012104A800F0BDF8AAE0A8
:100B000000BF0698006804900698001D06904FF0FC
:100B100000080498002805DA0498404204904FF039
:100B2000010901E04FF000090A2739E0069850F862
:100B300004AB0690002400E0641C1AF804000028AE
:100B4000FAD12146504600F097F8A5420BD92D1B4B
:100B500005E076E07AE0012143A000F08DF8281E40
:100B6000A5F10105F7D176E0069800680490069893
:100B7000001D06904FF000080A274FF000090FE013
:100B800001E001E000BF00BF0698006804900698ED
:100B9000001D06904FF0000810274FF0000900BF1D
:100BA000012401E07C436D1E04FB07F00499884298
:100BB00005D804FB07F0B0FBF7F0A042F2D0B9F182
:100BC000000F00D06D1EB9F1000F0AD0BBF1300F3D
:100BD00007D12D22404608F101080DF800204FF002
:100BE0000009012D0BD9102D09D26D1E05E04046DC
:100BF00008F101080DF800B06D1E002DF7D1B9F114
:100C0000000F05D02D22404608F101080DF8002004
:100C100010E00498B0FBF4F0B0FBF7F107FB110013
:100C2000124909680A5C404608F101080DF80020E5
:100C3000B4FBF7F4002CECD14146684600F01CF8F8
:100C400009E0701E012100F017F804E0052108A05A
:100C500000F012F800BF00BF307800287FF4E9AE42
:100C600007B0BDE8F08F00002000000084140000F1
:100C70004552524F5200000070B505460E46002402
:100C800017E0285D0A2808D14FF0807040690D21D7
:100C900002680A480068904702E0285D00B90AE04F
:100CA000295D4FF0807040690268044800689047F1
:100CB000641CB442E5D300BF204670BD0000002094
:100CC00002E008C8121F08C1002AFAD17047704715
:100CD000002001E001C1121F002AFBD17047000073
:100CE00038B5044600210C48FFF722FB00BF002264
:100CF00011460948FFF701FB0028F8D000210648FB
:100D0000FFF7EEFA08202346034A483201210090FB
:100D10000E2000F015F938BD00800340F8B50546F7
:100D20000E4614461F463748FFF7F0FD3648FFF7DA
:100D3000EDFD31462846FFF77FFC00231A46194691
:100D40003248FFF701FB00213048FFF724FB234620
:100D5000002211462D48FFF724FB234601220021E3
:100D60002A48FFF71EFB2346022200212748FFF7EF
:100D700018FB2346032200212448FFF712FB2346D9
:100D8000042200212148FFF70CFB23460522002105
:100D90001E48FFF706FB2346062200211B48FFF7EB
:100DA00000FB44F06003072200211848FFF7F9FA1E
:100DB000012271211548FFF787FA00211348FFF738
:100DC0008FFA00211148FFF78FFA114800F010F94F
:100DD0000E2000F061F80F210E2000F071F80D498F
:100DE0000E2000F08FF80E2000F0A0F808203B46FF
:100DF000064A4832012100900E2000F0A1F800F0D0
:100E0000FDF8F8BD003800F0000C00F00080034051
:100E10000020002000C000AE002400251748FFF786
:100E2000DFFC1748FFF772FDFFF78AFD1548FFF753
:100E3000ADFD21E06D1C144B012204211348FFF786
:100E40006DFF1148FFF74CFF002410E00E4850F8EA
:100E50002410082000FB054008380D4A42F82010F5
:100E6000094850F824100BA0FFF7D0FD641C082C93
:100E7000ECDB802D00D10025DCE70000400500C13F
:100E8000040800F000C00040201C00200040024088
:100E9000200C002025640A0030B5C3B2000CDC0829
:100EA000064D05EB84015C07E20E0C680F259540AA
:100EB000AC4300FA02F52C430C6030BD10F50F4036
:100EC00000F01F0001F001021AB1012282400C4B18
:100ED000DA6101F002021AB101228240084B5A6322
:100EE00001F004021AB101228240054BDA6301F0DD
:100EF00008021AB101228240014B5A627047000079
:100F000000F00F4010B500F03F00064B9A6802EB6E
:100F100000139B68044C23400B4302EB0014A360B6
:100F200010BD000000F00F40F73FFC0000F01F0272
:100F300001219140014A91627047000000F00F408A
:100F40002DE9F04316461F46079D00F03F00DFF8ED
:100F50009C80D8F8083003EB0018D8F8088043F6D6
:100F6000F77928EA090400F02008B8F1000F05D04D
:100F7000042901D0062901D141F00101A5F10108A0
:100F800041EA081848EA040404F04062B2F1406FF4
:100F900006D0920E05FA02FC06EB0C08A8F1010639
:100FA00003EB0018C8F8006004F04042B2F1404F73
:100FB00011D0042901D0062906D140F0200803EB06
:100FC000081808F10C0706E0920F05FA02FC07EB7F
:100FD0000C08A8F1010703EB0018C8F8047003EB34
:100FE0000018C8F80840BDE8F083000000F00F408A
:100FF000014988607047000000F00F40012001495E
:101000004860704700F00F400040004010000000B2
:10101000008005401000000000500040110000005A
:101020000090054011000000006000401200000028
:1010300000A00540120000000070004013000000F6
:1010400000B0054013000000004002401400000002
:1010500000C0054014000000005002402E000000B7
:1010600000D005402E000000006002402F0000006C
:1010700000E005402F00000000700240300000003A
:1010800000F005403000000000D0034046000000A2
:101090000000064046000000001006404700000027
:1010A0000020064048000000003006407F0000009D
:1010B0000040064080000000005006408400000010
:1010C000006006408C00000000400040100000005E
:1010D000008005401000000000500040110000009A
:1010E0000090054011000000006000401200000068
:1010F00000A0054012000000007000401300000036
:1011000000B0054013000000004002401400000041
:1011100000C0054014000000005002402E000000F6
:1011200000D005402E000000006002402F000000AB
:1011300000E005402F000000007002403000000079
:1011400000F005403000000000D0034043000000E4
:10115000000006404300000000100640440000006C
:101160000020064045000000003006405800000006
:101170000040064059000000005006405C0000009E
:101180000060064064000000007006406C00000033
:10119000008006406D000000009006407F000000C7
:1011A0000040004000800540005000400090054095
:1011B0000060004000A005400070004000B0054005
:1011C0000040024000C005400050024000D00540F1
:1011D0000060024000E005400070024000F0054061
:1011E00000D00340000006400010064000100640FA
:1011F0000020064000200640003006400030064037
:1012000000400640004006400050064000500640A6
:101210000060064000600640007006400070064016
:101220000080064000800640009006400090064086
:1012300040420F0000201C0080841E00008025001A
:10124000999E36000040380000093D0000803E00B5
:1012500000004B00404B4C0000204E00808D5B0096
:1012600000C05D000080700000127A0000007D0068
:1012700080969800001BB7000080BB00C0E8CE003D
:10128000647ADA000024F4000000FA0080A8120159
:10129000002D310100366E0140787D0140000000D4
:1012A00000000000000100003E00080000000000F7
:1012B00000010000A000000002000000000100008A
:1012C0003454010000000000000100002B700600F3
:1012D00000000000000100002800000000000000E5
:1012E00000010000270001000000000000010000D4
:1012F000200000000000000000010000500000007D
:1013000002000000000100001AAC00000000000014
:101310000001000017940900000000000001000017
:1013200016980500000000000001000014000000F5
:101330000000000000010000138008000000000011
:1013400000010000A00000000800000000010000F3
:101350001000000000000000000100002800000054
:101360000200000000010000400000000400000036
:10137000000100006000000000000000000100000B
:101380005D000C00000000000001000050000000A3
:1013900000000000000100004E00020000000000FC
:1013A0000001000041AC010000000000000100004D
:1013B0003C00000000000000000100003A8009002D
:1013C00000000000000100003000000000000000EC
:1013D00000010000280000000000000000010000E3
:1013E000270001000000000000010000236006004B
:1013F0000000000000010000216008000000000063
:10140000000100001E0000000000000000010000BC
:101410001DC004000000000000010000500000009A
:1014200002000000000100001800000000000000A1
:101430000001000014000000000000000001000096
:101440006000000004000000000100000024F4001F
:1014500030003000005A620291009100008793032F
:10146000D200D20000B4C4041301130100E1F50559
:1014700054015401000E2707950195010068890960
:10148000001C4E0EA014000000C0004000D0004020
:1014900000E00040001800F0011800F0021800F011
:1014A00030313233343536373839616263646566DA
:1014B00000000000D414000000000020080000001C
:1014C000C00C0000DC14000008000020F82400001C
:0C14D000D00C0000000000000000000034
:040000050000028570
:00000001FF
